:020000040800F2
:10000000600600206D0100087501000877010008F6
:10001000790100087B0100087D0100080000000054
:100020000000000000000000000000007F01000848
:10003000810100080000000083010008850100081C
:100040008701000887010008870100088701000870
:100050008701000887010008870100088701000860
:100060008701000887010008870100088701000850
:100070008701000887010008870100088701000840
:100080008701000887010008870100088701000830
:100090008701000887010008870100088701000820
:1000A0008701000887010008870100088701000810
:1000B0008701000887010008870100088701000800
:1000C00087010008870100088701000887010008F0
:1000D00087010008870100088701000887010008E0
:1000E00087010008870100088701000800F002F876
:1000F00000F02CF80AA090E8000C82448344AAF196
:100100000107DA4501D100F021F8AFF2090EBAE893
:100110000F0013F0010F18BFFB1A43F0010318473B
:10012000B0050000C00500000023002400250026C3
:10013000103A28BF78C1FBD8520728BF30C148BF4A
:100140000B6070471FB51FBD10B510BD00F031F832
:100150001146FFF7F7FF00F07DFA00F04FF803B407
:10016000FFF7F2FF03BC00F057F800000948804792
:1001700009480047FEE7FEE7FEE7FEE7FEE7FEE789
:10018000FEE7FEE7FEE7FEE704480549054A064BA1
:100190007047000091050008ED0000086000002095
:1001A0006006002060020020600200207047704757
:1001B0007047754600F02CF8AE4605006946534678
:1001C00020F00700854618B020B5FFF7DDFFBDE839
:1001D00020404FF000064FF000074FF000084FF0AE
:1001E000000BAC46ACE8C009ACE8C009ACE8C009FB
:1001F000ACE8C00921F007018D46704710B50446F0
:10020000AFF300802046BDE81040FFF7A8BF000014
:10021000004870470000002001491820ABBEFEE7EF
:10022000260002007047000084B003900291019202
:1002300000930198009940EA8100019002980728F4
:1002400013D8FFE7029880000F2101FA00F003990C
:100250000A6822EA00000860019802998900884033
:1002600003990A681043086015E002980838029064
:10027000029880000F2101FA00F003994A6822EAEF
:1002800000004860019802998900884003994A68F3
:1002900010434860FFE704B07047000081B00020C1
:1002A0000090FFE700984CF2BF61C0F22D01884238
:1002B00005DCFFE7FFE7009801300090F2E701B0AE
:1002C0007047000080B584B00A4603468DF80F00E1
:1002D000ADF80C1041F21800C4F20200016841F0C0
:1002E00001010160016841F0080101609DF80F0003
:1002F000012839D1FFE741F21C00C4F20200016875
:1003000041F40011016040F60040C4F201000621F2
:10031000032202900192019BFFF786FF07210298BA
:10032000019A019BFFF780FF45F20040C4F20000F4
:10033000018801800188018045F20441C4F2000176
:1003400008220A80BDF80C1045F21C42C4F20002DB
:10035000118045F22041C4F2000109220A8001887F
:1003600041F001010180FFE704B080BD80B582B09B
:1003700013468C4686468DF807008DF806108DF8DA
:1003800005209DF8070001284AD1FFE79DF80600E7
:10039000400045F20841C4F20001088045F20040E7
:1003A000C4F20000018841F480610180FFE745F25A
:1003B0001440C4F2000000888007002801D4FFE741
:1003C000F5E7FFE745F21440C4F20000008880071B
:1003D00000280FD5FFE745F21440C4F20000008862
:1003E000ADF8020045F21840C4F200000088ADF8F4
:1003F0000200E7E7FFE745F21440C4F2000000887E
:100400000006002801D4FFE7F5E79DF8050045F256
:100410001041C4F200010880012000F003F8FFE75A
:1004200002B080BD82B001468DF807009DF807003C
:10043000012815D1FFE745F21440C4F200000088FE
:10044000009045F21840C4F200000088009045F288
:100450000040C4F20000018841F400710180FFE710
:1004600002B0704780B500F001F880BD83B0002075
:100470000290019041F20000C4F20200016841F4D0
:1004800080310160FFE741F20000C4F20200006821
:1004900000F400300190029801300290FFE70198CB
:1004A00000210028009107D1FFE70298B0F5A06075
:1004B00018BF01200090FFE70098C0070028E2D194
:1004C000FFE741F20000C4F2020000688003002848
:1004D00003D5FFE70120019002E000200190FFE733
:1004E0000198012850D1FFE742F20000C4F2020057
:1004F000016841F010010160016821F00301016011
:10050000016841F00201016041F20400C4F20200FE
:100510000168016001680160016841F48061016067
:10052000016821F47C110160016841F4E811016067
:1005300041F20000C4F20200016841F080710160E4
:10054000FFE741F20000C4F20200006880010028C9
:1005500001D4FFE7F5E741F20400C4F202000168AC
:1005600021F003010160016841F002010160FFE731
:1005700041F20400C4F20200006800F00C000828F8
:1005800001D0FFE7F4E700E0FFE703B070470000A9
:1005900080B541F20000C4F20200016841F001019F
:1005A000016041F20401C4F202010A680023CFF69F
:1005B000FF031A400A6002684FF6FF73CFF6F66336
:1005C0001A400260026822F480220260086820F467
:1005D000FE00086041F20800C4F202004FF41F015F
:1005E0000160FFF73FFF4EF60850CEF200004FF0DB
:1005F0000061016080BD000083B002900191009213
:100600000098002812D0FFE701981030012101FA6C
:1006100000F0029A136923EA00001061019801FAC0
:1006200000F002990A691043086111E00198012164
:1006300001FA00F0029A136923EA000010610198A0
:10064000103001FA00F002990A6910430861FFE7CF
:1006500003B0704780B586B00020059041F21801C4
:10066000C4F202010A6842F004020A600A6842F019
:1006700010020A6040F60001C4F2010101220323C6
:1006800004900846114603921A46DDF810C0029302
:100690006346FFF7C9FD41F20000C4F201000D21DD
:1006A00001900091029A049BFFF7BEFD019800990A
:1006B000049AFFF7A1FF2D210398FFF703FEFFE740
:1006C000012008210522FFF751FEFFF7E7FDF7E7BC
:1006D000E006000800000020600600002801000875
:040000050800016D81
:00000001FF
